{
  "_format": "hh-sol-artifact-1",
  "contractName": "DIDRegistry",
  "sourceName": "contracts/DIDRegistry.sol",
  "abi": [
    {
      "anonymous": false,
      "inputs": [
        {
          "indexed": true,
          "internalType": "address",
          "name": "identity",
          "type": "address"
        },
        {
          "indexed": false,
          "internalType": "bytes32",
          "name": "name",
          "type": "bytes32"
        },
        {
          "indexed": false,
          "internalType": "bytes",
          "name": "value",
          "type": "bytes"
        },
        {
          "indexed": false,
          "internalType": "uint256",
          "name": "validTo",
          "type": "uint256"
        },
        {
          "indexed": false,
          "internalType": "uint256",
          "name": "previousChange",
          "type": "uint256"
        }
      ],
      "name": "DIDAttributeChanged",
      "type": "event"
    },
    {
      "anonymous": false,
      "inputs": [
        {
          "indexed": true,
          "internalType": "address",
          "name": "identity",
          "type": "address"
        },
        {
          "indexed": false,
          "internalType": "bytes32",
          "name": "delegateType",
          "type": "bytes32"
        },
        {
          "indexed": false,
          "internalType": "address",
          "name": "delegate",
          "type": "address"
        },
        {
          "indexed": false,
          "internalType": "uint256",
          "name": "validTo",
          "type": "uint256"
        },
        {
          "indexed": false,
          "internalType": "uint256",
          "name": "previousChange",
          "type": "uint256"
        }
      ],
      "name": "DIDDelegateChanged",
      "type": "event"
    },
    {
      "anonymous": false,
      "inputs": [
        {
          "indexed": true,
          "internalType": "address",
          "name": "identity",
          "type": "address"
        },
        {
          "indexed": false,
          "internalType": "address",
          "name": "owner",
          "type": "address"
        },
        {
          "indexed": false,
          "internalType": "uint256",
          "name": "previousChange",
          "type": "uint256"
        }
      ],
      "name": "DIDOwnerChanged",
      "type": "event"
    },
    {
      "inputs": [
        {
          "internalType": "address",
          "name": "identity",
          "type": "address"
        },
        {
          "internalType": "bytes32",
          "name": "delegateType",
          "type": "bytes32"
        },
        {
          "internalType": "address",
          "name": "delegate",
          "type": "address"
        },
        {
          "internalType": "uint256",
          "name": "validity",
          "type": "uint256"
        }
      ],
      "name": "addDelegate",
      "outputs": [],
      "stateMutability": "nonpayable",
      "type": "function"
    },
    {
      "inputs": [
        {
          "internalType": "address",
          "name": "identity",
          "type": "address"
        },
        {
          "internalType": "uint8",
          "name": "sigV",
          "type": "uint8"
        },
        {
          "internalType": "bytes32",
          "name": "sigR",
          "type": "bytes32"
        },
        {
          "internalType": "bytes32",
          "name": "sigS",
          "type": "bytes32"
        },
        {
          "internalType": "bytes32",
          "name": "delegateType",
          "type": "bytes32"
        },
        {
          "internalType": "address",
          "name": "delegate",
          "type": "address"
        },
        {
          "internalType": "uint256",
          "name": "validity",
          "type": "uint256"
        }
      ],
      "name": "addDelegateSigned",
      "outputs": [],
      "stateMutability": "nonpayable",
      "type": "function"
    },
    {
      "inputs": [
        {
          "internalType": "address",
          "name": "identity",
          "type": "address"
        },
        {
          "internalType": "address",
          "name": "newOwner",
          "type": "address"
        }
      ],
      "name": "changeOwner",
      "outputs": [],
      "stateMutability": "nonpayable",
      "type": "function"
    },
    {
      "inputs": [
        {
          "internalType": "address",
          "name": "identity",
          "type": "address"
        },
        {
          "internalType": "uint8",
          "name": "sigV",
          "type": "uint8"
        },
        {
          "internalType": "bytes32",
          "name": "sigR",
          "type": "bytes32"
        },
        {
          "internalType": "bytes32",
          "name": "sigS",
          "type": "bytes32"
        },
        {
          "internalType": "address",
          "name": "newOwner",
          "type": "address"
        }
      ],
      "name": "changeOwnerSigned",
      "outputs": [],
      "stateMutability": "nonpayable",
      "type": "function"
    },
    {
      "inputs": [
        {
          "internalType": "address",
          "name": "",
          "type": "address"
        }
      ],
      "name": "changed",
      "outputs": [
        {
          "internalType": "uint256",
          "name": "",
          "type": "uint256"
        }
      ],
      "stateMutability": "view",
      "type": "function"
    },
    {
      "inputs": [
        {
          "internalType": "address",
          "name": "",
          "type": "address"
        },
        {
          "internalType": "bytes32",
          "name": "",
          "type": "bytes32"
        },
        {
          "internalType": "address",
          "name": "",
          "type": "address"
        }
      ],
      "name": "delegates",
      "outputs": [
        {
          "internalType": "uint256",
          "name": "",
          "type": "uint256"
        }
      ],
      "stateMutability": "view",
      "type": "function"
    },
    {
      "inputs": [
        {
          "internalType": "address",
          "name": "identity",
          "type": "address"
        }
      ],
      "name": "identityOwner",
      "outputs": [
        {
          "internalType": "address",
          "name": "",
          "type": "address"
        }
      ],
      "stateMutability": "view",
      "type": "function"
    },
    {
      "inputs": [
        {
          "internalType": "address",
          "name": "",
          "type": "address"
        }
      ],
      "name": "nonce",
      "outputs": [
        {
          "internalType": "uint256",
          "name": "",
          "type": "uint256"
        }
      ],
      "stateMutability": "view",
      "type": "function"
    },
    {
      "inputs": [
        {
          "internalType": "address",
          "name": "",
          "type": "address"
        }
      ],
      "name": "owners",
      "outputs": [
        {
          "internalType": "address",
          "name": "",
          "type": "address"
        }
      ],
      "stateMutability": "view",
      "type": "function"
    },
    {
      "inputs": [
        {
          "internalType": "address",
          "name": "identity",
          "type": "address"
        },
        {
          "internalType": "bytes32",
          "name": "name",
          "type": "bytes32"
        },
        {
          "internalType": "bytes",
          "name": "value",
          "type": "bytes"
        }
      ],
      "name": "revokeAttribute",
      "outputs": [],
      "stateMutability": "nonpayable",
      "type": "function"
    },
    {
      "inputs": [
        {
          "internalType": "address",
          "name": "identity",
          "type": "address"
        },
        {
          "internalType": "uint8",
          "name": "sigV",
          "type": "uint8"
        },
        {
          "internalType": "bytes32",
          "name": "sigR",
          "type": "bytes32"
        },
        {
          "internalType": "bytes32",
          "name": "sigS",
          "type": "bytes32"
        },
        {
          "internalType": "bytes32",
          "name": "name",
          "type": "bytes32"
        },
        {
          "internalType": "bytes",
          "name": "value",
          "type": "bytes"
        }
      ],
      "name": "revokeAttributeSigned",
      "outputs": [],
      "stateMutability": "nonpayable",
      "type": "function"
    },
    {
      "inputs": [
        {
          "internalType": "address",
          "name": "identity",
          "type": "address"
        },
        {
          "internalType": "bytes32",
          "name": "delegateType",
          "type": "bytes32"
        },
        {
          "internalType": "address",
          "name": "delegate",
          "type": "address"
        }
      ],
      "name": "revokeDelegate",
      "outputs": [],
      "stateMutability": "nonpayable",
      "type": "function"
    },
    {
      "inputs": [
        {
          "internalType": "address",
          "name": "identity",
          "type": "address"
        },
        {
          "internalType": "uint8",
          "name": "sigV",
          "type": "uint8"
        },
        {
          "internalType": "bytes32",
          "name": "sigR",
          "type": "bytes32"
        },
        {
          "internalType": "bytes32",
          "name": "sigS",
          "type": "bytes32"
        },
        {
          "internalType": "bytes32",
          "name": "delegateType",
          "type": "bytes32"
        },
        {
          "internalType": "address",
          "name": "delegate",
          "type": "address"
        }
      ],
      "name": "revokeDelegateSigned",
      "outputs": [],
      "stateMutability": "nonpayable",
      "type": "function"
    },
    {
      "inputs": [
        {
          "internalType": "address",
          "name": "identity",
          "type": "address"
        },
        {
          "internalType": "bytes32",
          "name": "name",
          "type": "bytes32"
        },
        {
          "internalType": "bytes",
          "name": "value",
          "type": "bytes"
        },
        {
          "internalType": "uint256",
          "name": "validity",
          "type": "uint256"
        }
      ],
      "name": "setAttribute",
      "outputs": [],
      "stateMutability": "nonpayable",
      "type": "function"
    },
    {
      "inputs": [
        {
          "internalType": "address",
          "name": "identity",
          "type": "address"
        },
        {
          "internalType": "uint8",
          "name": "sigV",
          "type": "uint8"
        },
        {
          "internalType": "bytes32",
          "name": "sigR",
          "type": "bytes32"
        },
        {
          "internalType": "bytes32",
          "name": "sigS",
          "type": "bytes32"
        },
        {
          "internalType": "bytes32",
          "name": "name",
          "type": "bytes32"
        },
        {
          "internalType": "bytes",
          "name": "value",
          "type": "bytes"
        },
        {
          "internalType": "uint256",
          "name": "validity",
          "type": "uint256"
        }
      ],
      "name": "setAttributeSigned",
      "outputs": [],
      "stateMutability": "nonpayable",
      "type": "function"
    },
    {
      "inputs": [
        {
          "internalType": "address",
          "name": "identity",
          "type": "address"
        },
        {
          "internalType": "bytes32",
          "name": "delegateType",
          "type": "bytes32"
        },
        {
          "internalType": "address",
          "name": "delegate",
          "type": "address"
        }
      ],
      "name": "validDelegate",
      "outputs": [
        {
          "internalType": "bool",
          "name": "",
          "type": "bool"
        }
      ],
      "stateMutability": "view",
      "type": "function"
    }
  ],
  "bytecode": "0x608060405234801561001057600080fd5b506113bf806100206000396000f3fe608060405234801561001057600080fd5b50600436106100ff5760003560e01c806380b29f7c11610097578063a7068d6611610066578063a7068d66146102b5578063e476af5c146102c8578063f00d4b5d146102db578063f96d0f9f146102ee57600080fd5b806380b29f7c146102695780638733d4e81461027c578063930726841461028f5780639c2c1b2b146102a257600080fd5b8063240cf1fa116100d3578063240cf1fa146101b1578063622b2a3c146101c457806370ae92d2146102365780637ad4b0a41461025657600080fd5b8062c023da14610104578063022914a7146101195780630d44625b1461015f578063123b5e981461019e575b600080fd5b610117610112366004610dd7565b61030e565b005b610142610127366004610e2e565b6000602081905290815260409020546001600160a01b031681565b6040516001600160a01b0390911681526020015b60405180910390f35b61019061016d366004610e50565b600160209081526000938452604080852082529284528284209052825290205481565b604051908152602001610156565b6101176101ac366004610e9d565b61031f565b6101176101bf366004610f22565b6103ab565b6102266101d2366004610e50565b6001600160a01b039283166000908152600160209081526040808320815180840196909652815180870384018152958201825285519583019590952083529381528382209290941681529252902054421090565b6040519015158152602001610156565b610190610244366004610e2e565b60036020526000908152604090205481565b610117610264366004610f79565b61048d565b610117610277366004610e50565b6104a0565b61014261028a366004610e2e565b6104ac565b61011761029d366004610fd8565b6104dc565b6101176102b0366004611037565b6105c7565b6101176102c33660046110a1565b6106b5565b6101176102d63660046110e5565b6106c2565b6101176102e936600461115f565b610741565b6101906102fc366004610e2e565b60026020526000908152604090205481565b61031a83338484610750565b505050565b6000601960f81b81306003826103348d6104ac565b6001600160a01b03166001600160a01b03168152602001908152602001600020548b8888886040516020016103709897969594939291906111b6565b6040516020818303038152906040528051906020012090506103a1886103998a8a8a8a87610824565b868686610923565b5050505050505050565b6000601960f81b81306003826103c08b6104ac565b6001600160a01b0316815260208082019290925260409081016000205481516001600160f81b0319968716818501529490951660218501526bffffffffffffffffffffffff19606093841b8116602286015260368501959095528a831b851660568501527f6368616e67654f776e6572000000000000000000000000000000000000000000606a8501529186901b90931660758301528051606981840301815260899092019052805191012090506104858661047f8188888887610824565b84610a07565b505050505050565b61049a8433858585610923565b50505050565b61031a83338484610b03565b6001600160a01b0380821660009081526020819052604081205490911680156104d55792915050565b5090919050565b6000601960f81b81306003826104f18c6104ac565b6001600160a01b0316815260208082019290925260409081016000205481516001600160f81b0319968716818501529490951660218501526bffffffffffffffffffffffff19606093841b8116602286015260368501959095528b831b851660568501527f7265766f6b6544656c6567617465000000000000000000000000000000000000606a850152607884018890529186901b90931660988301528051608c81840301815260ac9092019052805191012090506105be876105b78189898987610824565b8585610b03565b50505050505050565b6000601960f81b81306003826105dc8d6104ac565b6001600160a01b0316815260208082019290925260409081016000205490516001600160f81b031995861692810192909252929093166021840152606090811b6bffffffffffffffffffffffff19908116602285015260368401929092528a811b821660568401527f61646444656c6567617465000000000000000000000000000000000000000000606a8401526075830187905285901b16609582015260a9810183905260c9016040516020818303038152906040528051906020012090506103a1886106ad8a8a8a8a87610824565b868686610bfd565b61049a8433858585610bfd565b6000601960f81b81306003826106d78c6104ac565b6001600160a01b03166001600160a01b03168152602001908152602001600020548a87876040516020016107119796959493929190611253565b6040516020818303038152906040528051906020012090506105be8761073a8989898987610824565b8585610750565b61074c823383610a07565b5050565b838361075b826104ac565b6001600160a01b0316816001600160a01b0316146107ac5760405162461bcd60e51b81526020600482015260096024820152683130b22fb0b1ba37b960b91b60448201526064015b60405180910390fd5b6001600160a01b0386166000818152600260205260408082205490517f18ab6b2ae3d64306c00ce663125f2bd680e441a098de1635bd7ad8b0d44965e4926107f992899289929190611315565b60405180910390a25050506001600160a01b0390921660009081526002602052604090204390555050565b6040805160008082526020820180845284905260ff8716928201929092526060810185905260808101849052819060019060a0016020604051602081039080840390855afa15801561087a573d6000803e3d6000fd5b50505060206040510351905061088f876104ac565b6001600160a01b0316816001600160a01b0316146108ef5760405162461bcd60e51b815260206004820152600d60248201527f6261645f7369676e61747572650000000000000000000000000000000000000060448201526064016107a3565b6001600160a01b038116600090815260036020526040812080549161091383611357565b9091555090979650505050505050565b848461092e826104ac565b6001600160a01b0316816001600160a01b03161461097a5760405162461bcd60e51b81526020600482015260096024820152683130b22fb0b1ba37b960b91b60448201526064016107a3565b6001600160a01b0387167f18ab6b2ae3d64306c00ce663125f2bd680e441a098de1635bd7ad8b0d44965e486866109b18742611370565b6001600160a01b038c16600090815260026020526040908190205490516109db9493929190611315565b60405180910390a25050506001600160a01b039093166000908152600260205260409020439055505050565b8282610a12826104ac565b6001600160a01b0316816001600160a01b031614610a5e5760405162461bcd60e51b81526020600482015260096024820152683130b22fb0b1ba37b960b91b60448201526064016107a3565b6001600160a01b0385811660008181526020818152604080832080547fffffffffffffffffffffffff000000000000000000000000000000000000000016958916958617905560028252918290205482519485529084015290917f38a5a6e68f30ed1ab45860a4afb34bcb2fc00f22ca462d249b8a8d40cda6f7a3910160405180910390a2505050506001600160a01b03166000908152600260205260409020439055565b8383610b0e826104ac565b6001600160a01b0316816001600160a01b031614610b5a5760405162461bcd60e51b81526020600482015260096024820152683130b22fb0b1ba37b960b91b60448201526064016107a3565b6001600160a01b03868116600081815260016020908152604080832081518084018b90528251808203850181528184018085528151918601919091208652918452828520968a16808652968452828520429081905586865260029094529190932054928990526060810194909452608084015260a0830152907f5a5084339536bcab65f20799fcc58724588145ca054bd2be626174b27ba156f79060c0016107f9565b8484610c08826104ac565b6001600160a01b0316816001600160a01b031614610c545760405162461bcd60e51b81526020600482015260096024820152683130b22fb0b1ba37b960b91b60448201526064016107a3565b610c5e8342611370565b6001600160a01b03888116600081815260016020908152604080832081518084018d9052825180820385018152908301835280519084012084528252808320948a16835293905291909120919091557f5a5084339536bcab65f20799fcc58724588145ca054bd2be626174b27ba156f78686610cda8742611370565b6001600160a01b038c8116600090815260026020908152604091829020548251968752949092169185019190915283015260608201526080016109db565b80356001600160a01b0381168114610d2f57600080fd5b919050565b634e487b7160e01b600052604160045260246000fd5b600082601f830112610d5b57600080fd5b813567ffffffffffffffff80821115610d7657610d76610d34565b604051601f8301601f19908116603f01168101908282118183101715610d9e57610d9e610d34565b81604052838152866020858801011115610db757600080fd5b836020870160208301376000602085830101528094505050505092915050565b600080600060608486031215610dec57600080fd5b610df584610d18565b925060208401359150604084013567ffffffffffffffff811115610e1857600080fd5b610e2486828701610d4a565b9150509250925092565b600060208284031215610e4057600080fd5b610e4982610d18565b9392505050565b600080600060608486031215610e6557600080fd5b610e6e84610d18565b925060208401359150610e8360408501610d18565b90509250925092565b803560ff81168114610d2f57600080fd5b600080600080600080600060e0888a031215610eb857600080fd5b610ec188610d18565b9650610ecf60208901610e8c565b955060408801359450606088013593506080880135925060a088013567ffffffffffffffff811115610f0057600080fd5b610f0c8a828b01610d4a565b92505060c0880135905092959891949750929550565b600080600080600060a08688031215610f3a57600080fd5b610f4386610d18565b9450610f5160208701610e8c565b93506040860135925060608601359150610f6d60808701610d18565b90509295509295909350565b60008060008060808587031215610f8f57600080fd5b610f9885610d18565b935060208501359250604085013567ffffffffffffffff811115610fbb57600080fd5b610fc787828801610d4a565b949793965093946060013593505050565b60008060008060008060c08789031215610ff157600080fd5b610ffa87610d18565b955061100860208801610e8c565b945060408701359350606087013592506080870135915061102b60a08801610d18565b90509295509295509295565b600080600080600080600060e0888a03121561105257600080fd5b61105b88610d18565b965061106960208901610e8c565b955060408801359450606088013593506080880135925061108c60a08901610d18565b915060c0880135905092959891949750929550565b600080600080608085870312156110b757600080fd5b6110c085610d18565b9350602085013592506110d560408601610d18565b9396929550929360600135925050565b60008060008060008060c087890312156110fe57600080fd5b61110787610d18565b955061111560208801610e8c565b945060408701359350606087013592506080870135915060a087013567ffffffffffffffff81111561114657600080fd5b61115289828a01610d4a565b9150509295509295509295565b6000806040838503121561117257600080fd5b61117b83610d18565b915061118960208401610d18565b90509250929050565b60005b838110156111ad578181015183820152602001611195565b50506000910152565b60006001600160f81b0319808b168352808a166001840152506bffffffffffffffffffffffff19808960601b166002840152876016840152808760601b166036840152507f7365744174747269627574650000000000000000000000000000000000000000604a8301528460568301528351611239816076850160208801611192565b607692019182019290925260960198975050505050505050565b60006001600160f81b0319808a1683528089166001840152506bffffffffffffffffffffffff19808860601b166002840152866016840152808660601b166036840152507f7265766f6b654174747269627574650000000000000000000000000000000000604a83015283605983015282516112d6816079850160208701611192565b9190910160790198975050505050505050565b60008151808452611301816020860160208601611192565b601f01601f19169290920160200192915050565b84815260806020820152600061132e60808301866112e9565b6040830194909452506060015292915050565b634e487b7160e01b600052601160045260246000fd5b60006001820161136957611369611341565b5060010190565b8082018082111561138357611383611341565b9291505056fea2646970667358221220a88c060bd2c33181329d4fb3cc117129de897864d08959939bb6f2b5451292e564736f6c63430008150033",
  "linkReferences": {},
  "deployedLinkReferences": {}
}